{
  "_format": "hh-sol-artifact-1",
  "contractName": "ArtMarketplace",
  "sourceName": "contracts/ArtMarketplace.sol",
  "abi": [
    {
      "inputs": [
        {
          "internalType": "contract ArtToken",
          "name": "_token",
          "type": "address"
        }
      ],
      "stateMutability": "nonpayable",
      "type": "constructor"
    },
    {
      "anonymous": false,
      "inputs": [
        {
          "indexed": false,
          "internalType": "uint256",
          "name": "id",
          "type": "uint256"
        },
        {
          "indexed": false,
          "internalType": "uint256",
          "name": "tokenId",
          "type": "uint256"
        },
        {
          "indexed": false,
          "internalType": "uint256",
          "name": "price",
          "type": "uint256"
        }
      ],
      "name": "itemAddedForSale",
      "type": "event"
    },
    {
      "anonymous": false,
      "inputs": [
        {
          "indexed": false,
          "internalType": "uint256",
          "name": "id",
          "type": "uint256"
        },
        {
          "indexed": false,
          "internalType": "address",
          "name": "buyer",
          "type": "address"
        },
        {
          "indexed": false,
          "internalType": "uint256",
          "name": "price",
          "type": "uint256"
        }
      ],
      "name": "itemSold",
      "type": "event"
    },
    {
      "inputs": [
        {
          "internalType": "uint256",
          "name": "",
          "type": "uint256"
        }
      ],
      "name": "activeItems",
      "outputs": [
        {
          "internalType": "bool",
          "name": "",
          "type": "bool"
        }
      ],
      "stateMutability": "view",
      "type": "function"
    },
    {
      "inputs": [
        {
          "internalType": "uint256",
          "name": "id",
          "type": "uint256"
        }
      ],
      "name": "buyItem",
      "outputs": [],
      "stateMutability": "payable",
      "type": "function"
    },
    {
      "inputs": [
        {
          "internalType": "uint256",
          "name": "",
          "type": "uint256"
        }
      ],
      "name": "itemsForSale",
      "outputs": [
        {
          "internalType": "uint256",
          "name": "id",
          "type": "uint256"
        },
        {
          "internalType": "uint256",
          "name": "tokenId",
          "type": "uint256"
        },
        {
          "internalType": "address payable",
          "name": "seller",
          "type": "address"
        },
        {
          "internalType": "uint256",
          "name": "price",
          "type": "uint256"
        },
        {
          "internalType": "bool",
          "name": "isSold",
          "type": "bool"
        }
      ],
      "stateMutability": "view",
      "type": "function"
    },
    {
      "inputs": [
        {
          "internalType": "uint256",
          "name": "tokenId",
          "type": "uint256"
        },
        {
          "internalType": "uint256",
          "name": "price",
          "type": "uint256"
        }
      ],
      "name": "putItemForSale",
      "outputs": [
        {
          "internalType": "uint256",
          "name": "",
          "type": "uint256"
        }
      ],
      "stateMutability": "nonpayable",
      "type": "function"
    },
    {
      "inputs": [],
      "name": "totalItemsForSale",
      "outputs": [
        {
          "internalType": "uint256",
          "name": "",
          "type": "uint256"
        }
      ],
      "stateMutability": "view",
      "type": "function"
    }
  ],
  "bytecode": "0x60806040523480156200001157600080fd5b506040516200144438038062001444833981810160405281019062000037919062000095565b806000806101000a81548173ffffffffffffffffffffffffffffffffffffffff021916908373ffffffffffffffffffffffffffffffffffffffff1602179055505062000123565b6000815190506200008f8162000109565b92915050565b600060208284031215620000a857600080fd5b6000620000b8848285016200007e565b91505092915050565b6000620000ce82620000e9565b9050919050565b6000620000e282620000c1565b9050919050565b600073ffffffffffffffffffffffffffffffffffffffff82169050919050565b6200011481620000d5565b81146200012057600080fd5b50565b61131180620001336000396000f3fe60806040526004361061004a5760003560e01c8063092d0afc1461004f5780639c318c7b14610090578063e7fb74c7146100cd578063ec8120c9146100e9578063f4f3576414610114575b600080fd5b34801561005b57600080fd5b5061007660048036038101906100719190610dee565b610151565b604051610087959493929190611182565b60405180910390f35b34801561009c57600080fd5b506100b760048036038101906100b29190610dee565b6101c4565b6040516100c49190611055565b60405180910390f35b6100e760048036038101906100e29190610dee565b6101e4565b005b3480156100f557600080fd5b506100fe61090d565b60405161010b9190611130565b60405180910390f35b34801561012057600080fd5b5061013b60048036038101906101369190610e17565b61091a565b6040516101489190611130565b60405180910390f35b6001818154811061016157600080fd5b90600052602060002090600502016000915090508060000154908060010154908060020160009054906101000a900473ffffffffffffffffffffffffffffffffffffffff16908060030154908060040160009054906101000a900460ff16905085565b60026020528060005260406000206000915054906101000a900460ff1681565b80600180549050811080156102435750806001828154811061022f577f4e487b7100000000000000000000000000000000000000000000000000000000600052603260045260246000fd5b906000526020600020906005020160000154145b610282576040517f08c379a0000000000000000000000000000000000000000000000000000000008152600401610279906110d0565b60405180910390fd5b81600181815481106102bd577f4e487b7100000000000000000000000000000000000000000000000000000000600052603260045260246000fd5b906000526020600020906005020160040160009054906101000a900460ff161561031c576040517f08c379a000000000000000000000000000000000000000000000000000000000815260040161031390611110565b60405180910390fd5b60018381548110610356577f4e487b7100000000000000000000000000000000000000000000000000000000600052603260045260246000fd5b9060005260206000209060050201600101543073ffffffffffffffffffffffffffffffffffffffff1660008054906101000a900473ffffffffffffffffffffffffffffffffffffffff1673ffffffffffffffffffffffffffffffffffffffff1663081812fc836040518263ffffffff1660e01b81526004016103d89190611130565b60206040518083038186803b1580156103f057600080fd5b505afa158015610404573d6000803e3d6000fd5b505050506040513d601f19601f820116820180604052508101906104289190610dc5565b73ffffffffffffffffffffffffffffffffffffffff161461047e576040517f08c379a000000000000000000000000000000000000000000000000000000000815260040161047590611090565b60405180910390fd5b600184815481106104b8577f4e487b7100000000000000000000000000000000000000000000000000000000600052603260045260246000fd5b90600052602060002090600502016003015434101561050c576040517f08c379a000000000000000000000000000000000000000000000000000000000815260040161050390611070565b60405180910390fd5b60018481548110610546577f4e487b7100000000000000000000000000000000000000000000000000000000600052603260045260246000fd5b906000526020600020906005020160020160009054906101000a900473ffffffffffffffffffffffffffffffffffffffff1673ffffffffffffffffffffffffffffffffffffffff163373ffffffffffffffffffffffffffffffffffffffff1614156105b057600080fd5b60018085815481106105eb577f4e487b7100000000000000000000000000000000000000000000000000000000600052603260045260246000fd5b906000526020600020906005020160040160006101000a81548160ff02191690831515021790555060006002600060018781548110610653577f4e487b7100000000000000000000000000000000000000000000000000000000600052603260045260246000fd5b906000526020600020906005020160010154815260200190815260200160002060006101000a81548160ff02191690831515021790555060008054906101000a900473ffffffffffffffffffffffffffffffffffffffff1673ffffffffffffffffffffffffffffffffffffffff166342842e0e60018681548110610700577f4e487b7100000000000000000000000000000000000000000000000000000000600052603260045260246000fd5b906000526020600020906005020160020160009054906101000a900473ffffffffffffffffffffffffffffffffffffffff16336001888154811061076d577f4e487b7100000000000000000000000000000000000000000000000000000000600052603260045260246000fd5b9060005260206000209060050201600101546040518463ffffffff1660e01b815260040161079d9392919061101e565b600060405180830381600087803b1580156107b757600080fd5b505af11580156107cb573d6000803e3d6000fd5b5050505060018481548110610809577f4e487b7100000000000000000000000000000000000000000000000000000000600052603260045260246000fd5b906000526020600020906005020160020160009054906101000a900473ffffffffffffffffffffffffffffffffffffffff1673ffffffffffffffffffffffffffffffffffffffff166108fc349081150290604051600060405180830381858888f19350505050158015610880573d6000803e3d6000fd5b507f8164c6f8917e418c49813e4586897c7067de5a886aa1bea980cd11fa57d482648433600187815481106108de577f4e487b7100000000000000000000000000000000000000000000000000000000600052603260045260246000fd5b9060005260206000209060050201600301546040516108ff9392919061114b565b60405180910390a150505050565b6000600180549050905090565b6000823373ffffffffffffffffffffffffffffffffffffffff1660008054906101000a900473ffffffffffffffffffffffffffffffffffffffff1673ffffffffffffffffffffffffffffffffffffffff16636352211e836040518263ffffffff1660e01b815260040161098d9190611130565b60206040518083038186803b1580156109a557600080fd5b505afa1580156109b9573d6000803e3d6000fd5b505050506040513d601f19601f820116820180604052508101906109dd9190610dc5565b73ffffffffffffffffffffffffffffffffffffffff1614610a33576040517f08c379a0000000000000000000000000000000000000000000000000000000008152600401610a2a906110b0565b60405180910390fd5b833073ffffffffffffffffffffffffffffffffffffffff1660008054906101000a900473ffffffffffffffffffffffffffffffffffffffff1673ffffffffffffffffffffffffffffffffffffffff1663081812fc836040518263ffffffff1660e01b8152600401610aa49190611130565b60206040518083038186803b158015610abc57600080fd5b505afa158015610ad0573d6000803e3d6000fd5b505050506040513d601f19601f82011682018060405250810190610af49190610dc5565b73ffffffffffffffffffffffffffffffffffffffff1614610b4a576040517f08c379a0000000000000000000000000000000000000000000000000000000008152600401610b4190611090565b60405180910390fd5b6002600086815260200190815260200160002060009054906101000a900460ff1615610bab576040517f08c379a0000000000000000000000000000000000000000000000000000000008152600401610ba2906110f0565b60405180910390fd5b6000600180549050905060016040518060a001604052808381526020018881526020013373ffffffffffffffffffffffffffffffffffffffff168152602001878152602001600015158152509080600181540180825580915050600190039060005260206000209060050201600090919091909150600082015181600001556020820151816001015560408201518160020160006101000a81548173ffffffffffffffffffffffffffffffffffffffff021916908373ffffffffffffffffffffffffffffffffffffffff1602179055506060820151816003015560808201518160040160006101000a81548160ff021916908315150217905550505060016002600088815260200190815260200160002060006101000a81548160ff0219169083151502179055508060018281548110610d0e577f4e487b7100000000000000000000000000000000000000000000000000000000600052603260045260246000fd5b90600052602060002090600502016000015414610d54577f4e487b7100000000000000000000000000000000000000000000000000000000600052600160045260246000fd5b7fafd8780f802588de8705083b0f6a33ac59b8d0228c80f9babe0549c1621c33f8818787604051610d87939291906111d5565b60405180910390a180935050505092915050565b600081519050610daa816112ad565b92915050565b600081359050610dbf816112c4565b92915050565b600060208284031215610dd757600080fd5b6000610de584828501610d9b565b91505092915050565b600060208284031215610e0057600080fd5b6000610e0e84828501610db0565b91505092915050565b60008060408385031215610e2a57600080fd5b6000610e3885828601610db0565b9250506020610e4985828601610db0565b9150509250929050565b610e5c81611277565b82525050565b610e6b8161122f565b82525050565b610e7a8161121d565b82525050565b610e8981611241565b82525050565b6000610e9c60158361120c565b91507f4e6f7420656e6f7567682066756e64732073656e7400000000000000000000006000830152602082019050919050565b6000610edc60168361120c565b91507f4d61726b6574206973206e6f7420617070726f766564000000000000000000006000830152602082019050919050565b6000610f1c601c8361120c565b91507f53656e64657220646f6573206e6f74206f776e20746865206974656d000000006000830152602082019050919050565b6000610f5c60138361120c565b91507f436f756c64206e6f742066696e64206974656d000000000000000000000000006000830152602082019050919050565b6000610f9c601b8361120c565b91507f4974656d20697320616c726561647920757020666f722073616c6500000000006000830152602082019050919050565b6000610fdc60148361120c565b91507f4974656d20697320616c726561647920736f6c640000000000000000000000006000830152602082019050919050565b6110188161126d565b82525050565b60006060820190506110336000830186610e53565b6110406020830185610e71565b61104d604083018461100f565b949350505050565b600060208201905061106a6000830184610e80565b92915050565b6000602082019050818103600083015261108981610e8f565b9050919050565b600060208201905081810360008301526110a981610ecf565b9050919050565b600060208201905081810360008301526110c981610f0f565b9050919050565b600060208201905081810360008301526110e981610f4f565b9050919050565b6000602082019050818103600083015261110981610f8f565b9050919050565b6000602082019050818103600083015261112981610fcf565b9050919050565b6000602082019050611145600083018461100f565b92915050565b6000606082019050611160600083018661100f565b61116d6020830185610e71565b61117a604083018461100f565b949350505050565b600060a082019050611197600083018861100f565b6111a4602083018761100f565b6111b16040830186610e62565b6111be606083018561100f565b6111cb6080830184610e80565b9695505050505050565b60006060820190506111ea600083018661100f565b6111f7602083018561100f565b611204604083018461100f565b949350505050565b600082825260208201905092915050565b60006112288261124d565b9050919050565b600061123a8261124d565b9050919050565b60008115159050919050565b600073ffffffffffffffffffffffffffffffffffffffff82169050919050565b6000819050919050565b600061128282611289565b9050919050565b60006112948261129b565b9050919050565b60006112a68261124d565b9050919050565b6112b68161121d565b81146112c157600080fd5b50565b6112cd8161126d565b81146112d857600080fd5b5056fea2646970667358221220b8585820c15cde4a7abc3c8be33a94345ba1a10409307b4c720623163945ec5a64736f6c63430008000033",
  "linkReferences": {},
  "deployedLinkReferences": {}
}