{
  "_format": "hh-sol-artifact-1",
  "contractName": "ArtToken",
  "sourceName": "contracts/ArtToken.sol",
  "abi": [
    {
      "inputs": [],
      "stateMutability": "nonpayable",
      "type": "constructor"
    },
    {
      "anonymous": false,
      "inputs": [
        {
          "indexed": true,
          "internalType": "address",
          "name": "owner",
          "type": "address"
        },
        {
          "indexed": true,
          "internalType": "address",
          "name": "approved",
          "type": "address"
        },
        {
          "indexed": true,
          "internalType": "uint256",
          "name": "tokenId",
          "type": "uint256"
        }
      ],
      "name": "Approval",
      "type": "event"
    },
    {
      "anonymous": false,
      "inputs": [
        {
          "indexed": true,
          "internalType": "address",
          "name": "owner",
          "type": "address"
        },
        {
          "indexed": true,
          "internalType": "address",
          "name": "operator",
          "type": "address"
        },
        {
          "indexed": false,
          "internalType": "bool",
          "name": "approved",
          "type": "bool"
        }
      ],
      "name": "ApprovalForAll",
      "type": "event"
    },
    {
      "anonymous": false,
      "inputs": [
        {
          "indexed": true,
          "internalType": "address",
          "name": "from",
          "type": "address"
        },
        {
          "indexed": true,
          "internalType": "address",
          "name": "to",
          "type": "address"
        },
        {
          "indexed": true,
          "internalType": "uint256",
          "name": "tokenId",
          "type": "uint256"
        }
      ],
      "name": "Transfer",
      "type": "event"
    },
    {
      "inputs": [
        {
          "internalType": "uint256",
          "name": "",
          "type": "uint256"
        }
      ],
      "name": "Items",
      "outputs": [
        {
          "internalType": "uint256",
          "name": "id",
          "type": "uint256"
        },
        {
          "internalType": "address",
          "name": "creator",
          "type": "address"
        },
        {
          "internalType": "string",
          "name": "uri",
          "type": "string"
        }
      ],
      "stateMutability": "view",
      "type": "function"
    },
    {
      "inputs": [
        {
          "internalType": "address",
          "name": "to",
          "type": "address"
        },
        {
          "internalType": "uint256",
          "name": "tokenId",
          "type": "uint256"
        }
      ],
      "name": "approve",
      "outputs": [],
      "stateMutability": "nonpayable",
      "type": "function"
    },
    {
      "inputs": [
        {
          "internalType": "address",
          "name": "owner",
          "type": "address"
        }
      ],
      "name": "balanceOf",
      "outputs": [
        {
          "internalType": "uint256",
          "name": "",
          "type": "uint256"
        }
      ],
      "stateMutability": "view",
      "type": "function"
    },
    {
      "inputs": [
        {
          "internalType": "uint256",
          "name": "tokenId",
          "type": "uint256"
        }
      ],
      "name": "getApproved",
      "outputs": [
        {
          "internalType": "address",
          "name": "",
          "type": "address"
        }
      ],
      "stateMutability": "view",
      "type": "function"
    },
    {
      "inputs": [
        {
          "internalType": "address",
          "name": "owner",
          "type": "address"
        },
        {
          "internalType": "address",
          "name": "operator",
          "type": "address"
        }
      ],
      "name": "isApprovedForAll",
      "outputs": [
        {
          "internalType": "bool",
          "name": "",
          "type": "bool"
        }
      ],
      "stateMutability": "view",
      "type": "function"
    },
    {
      "inputs": [],
      "name": "marketplace",
      "outputs": [
        {
          "internalType": "address",
          "name": "",
          "type": "address"
        }
      ],
      "stateMutability": "view",
      "type": "function"
    },
    {
      "inputs": [
        {
          "internalType": "string",
          "name": "uri",
          "type": "string"
        }
      ],
      "name": "mint",
      "outputs": [
        {
          "internalType": "uint256",
          "name": "",
          "type": "uint256"
        }
      ],
      "stateMutability": "nonpayable",
      "type": "function"
    },
    {
      "inputs": [],
      "name": "name",
      "outputs": [
        {
          "internalType": "string",
          "name": "",
          "type": "string"
        }
      ],
      "stateMutability": "view",
      "type": "function"
    },
    {
      "inputs": [
        {
          "internalType": "uint256",
          "name": "tokenId",
          "type": "uint256"
        }
      ],
      "name": "ownerOf",
      "outputs": [
        {
          "internalType": "address",
          "name": "",
          "type": "address"
        }
      ],
      "stateMutability": "view",
      "type": "function"
    },
    {
      "inputs": [
        {
          "internalType": "address",
          "name": "from",
          "type": "address"
        },
        {
          "internalType": "address",
          "name": "to",
          "type": "address"
        },
        {
          "internalType": "uint256",
          "name": "tokenId",
          "type": "uint256"
        }
      ],
      "name": "safeTransferFrom",
      "outputs": [],
      "stateMutability": "nonpayable",
      "type": "function"
    },
    {
      "inputs": [
        {
          "internalType": "address",
          "name": "from",
          "type": "address"
        },
        {
          "internalType": "address",
          "name": "to",
          "type": "address"
        },
        {
          "internalType": "uint256",
          "name": "tokenId",
          "type": "uint256"
        },
        {
          "internalType": "bytes",
          "name": "_data",
          "type": "bytes"
        }
      ],
      "name": "safeTransferFrom",
      "outputs": [],
      "stateMutability": "nonpayable",
      "type": "function"
    },
    {
      "inputs": [
        {
          "internalType": "address",
          "name": "operator",
          "type": "address"
        },
        {
          "internalType": "bool",
          "name": "approved",
          "type": "bool"
        }
      ],
      "name": "setApprovalForAll",
      "outputs": [],
      "stateMutability": "nonpayable",
      "type": "function"
    },
    {
      "inputs": [
        {
          "internalType": "address",
          "name": "market",
          "type": "address"
        }
      ],
      "name": "setMarketplace",
      "outputs": [],
      "stateMutability": "nonpayable",
      "type": "function"
    },
    {
      "inputs": [
        {
          "internalType": "bytes4",
          "name": "interfaceId",
          "type": "bytes4"
        }
      ],
      "name": "supportsInterface",
      "outputs": [
        {
          "internalType": "bool",
          "name": "",
          "type": "bool"
        }
      ],
      "stateMutability": "view",
      "type": "function"
    },
    {
      "inputs": [],
      "name": "symbol",
      "outputs": [
        {
          "internalType": "string",
          "name": "",
          "type": "string"
        }
      ],
      "stateMutability": "view",
      "type": "function"
    },
    {
      "inputs": [
        {
          "internalType": "uint256",
          "name": "index",
          "type": "uint256"
        }
      ],
      "name": "tokenByIndex",
      "outputs": [
        {
          "internalType": "uint256",
          "name": "",
          "type": "uint256"
        }
      ],
      "stateMutability": "view",
      "type": "function"
    },
    {
      "inputs": [
        {
          "internalType": "address",
          "name": "owner",
          "type": "address"
        },
        {
          "internalType": "uint256",
          "name": "index",
          "type": "uint256"
        }
      ],
      "name": "tokenOfOwnerByIndex",
      "outputs": [
        {
          "internalType": "uint256",
          "name": "",
          "type": "uint256"
        }
      ],
      "stateMutability": "view",
      "type": "function"
    },
    {
      "inputs": [
        {
          "internalType": "uint256",
          "name": "tokenId",
          "type": "uint256"
        }
      ],
      "name": "tokenURI",
      "outputs": [
        {
          "internalType": "string",
          "name": "",
          "type": "string"
        }
      ],
      "stateMutability": "view",
      "type": "function"
    },
    {
      "inputs": [],
      "name": "totalSupply",
      "outputs": [
        {
          "internalType": "uint256",
          "name": "",
          "type": "uint256"
        }
      ],
      "stateMutability": "view",
      "type": "function"
    },
    {
      "inputs": [
        {
          "internalType": "address",
          "name": "from",
          "type": "address"
        },
        {
          "internalType": "address",
          "name": "to",
          "type": "address"
        },
        {
          "internalType": "uint256",
          "name": "tokenId",
          "type": "uint256"
        }
      ],
      "name": "transferFrom",
      "outputs": [],
      "stateMutability": "nonpayable",
      "type": "function"
    }
  ],
  "bytecode": "0x60806040523480156200001157600080fd5b506040518060400160405280600881526020017f417274546f6b656e0000000000000000000000000000000000000000000000008152506040518060400160405280600481526020017f4152544b00000000000000000000000000000000000000000000000000000000815250816000908051906020019062000096929190620000b8565b508060019080519060200190620000af929190620000b8565b505050620001cd565b828054620000c69062000168565b90600052602060002090601f016020900481019282620000ea576000855562000136565b82601f106200010557805160ff191683800117855562000136565b8280016001018555821562000136579182015b828111156200013557825182559160200191906001019062000118565b5b50905062000145919062000149565b5090565b5b80821115620001645760008160009055506001016200014a565b5090565b600060028204905060018216806200018157607f821691505b602082108114156200019857620001976200019e565b5b50919050565b7f4e487b7100000000000000000000000000000000000000000000000000000000600052602260045260246000fd5b61303b80620001dd6000396000f3fe608060405234801561001057600080fd5b506004361061012c5760003560e01c80636352211e116100ad578063abc8c7af11610071578063abc8c7af14610369578063b88d4fde14610387578063c87b56dd146103a3578063d85d3d27146103d3578063e985e9c5146104035761012c565b80636352211e146102b357806370a08231146102e357806373ad6c2d1461031357806395d89b411461032f578063a22cb4651461034d5761012c565b806318160ddd116100f457806318160ddd146101fd57806323b872dd1461021b5780632f745c591461023757806342842e0e146102675780634f6ccce7146102835761012c565b806301ffc9a71461013157806306fdde0314610161578063081812fc1461017f578063095ea7b3146101af57806317b47cc4146101cb575b600080fd5b61014b6004803603810190610146919061228a565b610433565b6040516101589190612a3a565b60405180910390f35b6101696104ad565b6040516101769190612a55565b60405180910390f35b6101996004803603810190610194919061231d565b61053f565b6040516101a691906129d3565b60405180910390f35b6101c960048036038101906101c4919061224e565b6105c4565b005b6101e560048036038101906101e0919061231d565b6106dc565b6040516101f493929190612c92565b60405180910390f35b6102056107ae565b6040516102129190612c77565b60405180910390f35b61023560048036038101906102309190612148565b6107bb565b005b610251600480360381019061024c919061224e565b61081b565b60405161025e9190612c77565b60405180910390f35b610281600480360381019061027c9190612148565b6108c0565b005b61029d6004803603810190610298919061231d565b6108e0565b6040516102aa9190612c77565b60405180910390f35b6102cd60048036038101906102c8919061231d565b610977565b6040516102da91906129d3565b60405180910390f35b6102fd60048036038101906102f891906120e3565b610a29565b60405161030a9190612c77565b60405180910390f35b61032d600480360381019061032891906120e3565b610ae1565b005b610337610b25565b6040516103449190612a55565b60405180910390f35b61036760048036038101906103629190612212565b610bb7565b005b610371610d38565b60405161037e91906129d3565b60405180910390f35b6103a1600480360381019061039c9190612197565b610d5e565b005b6103bd60048036038101906103b8919061231d565b610dc0565b6040516103ca9190612a55565b60405180910390f35b6103ed60048036038101906103e891906122dc565b610eb0565b6040516103fa9190612c77565b60405180910390f35b61041d6004803603810190610418919061210c565b610fbe565b60405161042a9190612a3a565b60405180910390f35b60007f780e9d63000000000000000000000000000000000000000000000000000000007bffffffffffffffffffffffffffffffffffffffffffffffffffffffff1916827bffffffffffffffffffffffffffffffffffffffffffffffffffffffff191614806104a657506104a582611052565b5b9050919050565b6060600080546104bc90612ed9565b80601f01602080910402602001604051908101604052809291908181526020018280546104e890612ed9565b80156105355780601f1061050a57610100808354040283529160200191610535565b820191906000526020600020905b81548152906001019060200180831161051857829003601f168201915b5050505050905090565b600061054a82611134565b610589576040517f08c379a000000000000000000000000000000000000000000000000000000000815260040161058090612bd7565b60405180910390fd5b6004600083815260200190815260200160002060009054906101000a900473ffffffffffffffffffffffffffffffffffffffff169050919050565b60006105cf82610977565b90508073ffffffffffffffffffffffffffffffffffffffff168373ffffffffffffffffffffffffffffffffffffffff161415610640576040517f08c379a000000000000000000000000000000000000000000000000000000000815260040161063790612c17565b60405180910390fd5b8073ffffffffffffffffffffffffffffffffffffffff1661065f6111a0565b73ffffffffffffffffffffffffffffffffffffffff16148061068e575061068d816106886111a0565b610fbe565b5b6106cd576040517f08c379a00000000000000000000000000000000000000000000000000000000081526004016106c490612b37565b60405180910390fd5b6106d783836111a8565b505050565b600c6020528060005260406000206000915090508060000154908060010160009054906101000a900473ffffffffffffffffffffffffffffffffffffffff169080600201805461072b90612ed9565b80601f016020809104026020016040519081016040528092919081815260200182805461075790612ed9565b80156107a45780601f10610779576101008083540402835291602001916107a4565b820191906000526020600020905b81548152906001019060200180831161078757829003601f168201915b5050505050905083565b6000600880549050905090565b6107cc6107c66111a0565b82611261565b61080b576040517f08c379a000000000000000000000000000000000000000000000000000000000815260040161080290612c37565b60405180910390fd5b61081683838361133f565b505050565b600061082683610a29565b8210610867576040517f08c379a000000000000000000000000000000000000000000000000000000000815260040161085e90612a77565b60405180910390fd5b600660008473ffffffffffffffffffffffffffffffffffffffff1673ffffffffffffffffffffffffffffffffffffffff168152602001908152602001600020600083815260200190815260200160002054905092915050565b6108db83838360405180602001604052806000815250610d5e565b505050565b60006108ea6107ae565b821061092b576040517f08c379a000000000000000000000000000000000000000000000000000000000815260040161092290612c57565b60405180910390fd5b60088281548110610965577f4e487b7100000000000000000000000000000000000000000000000000000000600052603260045260246000fd5b90600052602060002001549050919050565b6000806002600084815260200190815260200160002060009054906101000a900473ffffffffffffffffffffffffffffffffffffffff169050600073ffffffffffffffffffffffffffffffffffffffff168173ffffffffffffffffffffffffffffffffffffffff161415610a20576040517f08c379a0000000000000000000000000000000000000000000000000000000008152600401610a1790612b77565b60405180910390fd5b80915050919050565b60008073ffffffffffffffffffffffffffffffffffffffff168273ffffffffffffffffffffffffffffffffffffffff161415610a9a576040517f08c379a0000000000000000000000000000000000000000000000000000000008152600401610a9190612b57565b60405180910390fd5b600360008373ffffffffffffffffffffffffffffffffffffffff1673ffffffffffffffffffffffffffffffffffffffff168152602001908152602001600020549050919050565b80600b60006101000a81548173ffffffffffffffffffffffffffffffffffffffff021916908373ffffffffffffffffffffffffffffffffffffffff16021790555050565b606060018054610b3490612ed9565b80601f0160208091040260200160405190810160405280929190818152602001828054610b6090612ed9565b8015610bad5780601f10610b8257610100808354040283529160200191610bad565b820191906000526020600020905b815481529060010190602001808311610b9057829003601f168201915b5050505050905090565b610bbf6111a0565b73ffffffffffffffffffffffffffffffffffffffff168273ffffffffffffffffffffffffffffffffffffffff161415610c2d576040517f08c379a0000000000000000000000000000000000000000000000000000000008152600401610c2490612af7565b60405180910390fd5b8060056000610c3a6111a0565b73ffffffffffffffffffffffffffffffffffffffff1673ffffffffffffffffffffffffffffffffffffffff16815260200190815260200160002060008473ffffffffffffffffffffffffffffffffffffffff1673ffffffffffffffffffffffffffffffffffffffff16815260200190815260200160002060006101000a81548160ff0219169083151502179055508173ffffffffffffffffffffffffffffffffffffffff16610ce76111a0565b73ffffffffffffffffffffffffffffffffffffffff167f17307eab39ab6107e8899845ad3d59bd9653f200f220920489ca2b5937696c3183604051610d2c9190612a3a565b60405180910390a35050565b600b60009054906101000a900473ffffffffffffffffffffffffffffffffffffffff1681565b610d6f610d696111a0565b83611261565b610dae576040517f08c379a0000000000000000000000000000000000000000000000000000000008152600401610da590612c37565b60405180910390fd5b610dba8484848461159b565b50505050565b6060610dcb82611134565b610e0a576040517f08c379a0000000000000000000000000000000000000000000000000000000008152600401610e0190612bb7565b60405180910390fd5b600c60008381526020019081526020016000206002018054610e2b90612ed9565b80601f0160208091040260200160405190810160405280929190818152602001828054610e5790612ed9565b8015610ea45780601f10610e7957610100808354040283529160200191610ea4565b820191906000526020600020905b815481529060010190602001808311610e8757829003601f168201915b50505050509050919050565b6000610ebc600a6115f7565b6000610ec8600a61160d565b9050610ed4338261161b565b610f00600b60009054906101000a900473ffffffffffffffffffffffffffffffffffffffff16826105c4565b60405180606001604052808281526020013373ffffffffffffffffffffffffffffffffffffffff16815260200184815250600c60008381526020019081526020016000206000820151816000015560208201518160010160006101000a81548173ffffffffffffffffffffffffffffffffffffffff021916908373ffffffffffffffffffffffffffffffffffffffff1602179055506040820151816002019080519060200190610fb1929190611f07565b5090505080915050919050565b6000600560008473ffffffffffffffffffffffffffffffffffffffff1673ffffffffffffffffffffffffffffffffffffffff16815260200190815260200160002060008373ffffffffffffffffffffffffffffffffffffffff1673ffffffffffffffffffffffffffffffffffffffff16815260200190815260200160002060009054906101000a900460ff16905092915050565b60007f80ac58cd000000000000000000000000000000000000000000000000000000007bffffffffffffffffffffffffffffffffffffffffffffffffffffffff1916827bffffffffffffffffffffffffffffffffffffffffffffffffffffffff1916148061111d57507f5b5e139f000000000000000000000000000000000000000000000000000000007bffffffffffffffffffffffffffffffffffffffffffffffffffffffff1916827bffffffffffffffffffffffffffffffffffffffffffffffffffffffff1916145b8061112d575061112c82611639565b5b9050919050565b60008073ffffffffffffffffffffffffffffffffffffffff166002600084815260200190815260200160002060009054906101000a900473ffffffffffffffffffffffffffffffffffffffff1673ffffffffffffffffffffffffffffffffffffffff1614159050919050565b600033905090565b816004600083815260200190815260200160002060006101000a81548173ffffffffffffffffffffffffffffffffffffffff021916908373ffffffffffffffffffffffffffffffffffffffff160217905550808273ffffffffffffffffffffffffffffffffffffffff1661121b83610977565b73ffffffffffffffffffffffffffffffffffffffff167f8c5be1e5ebec7d5bd14f71427d1e84f3dd0314c0f7b2291e5b200ac8c7c3b92560405160405180910390a45050565b600061126c82611134565b6112ab576040517f08c379a00000000000000000000000000000000000000000000000000000000081526004016112a290612b17565b60405180910390fd5b60006112b683610977565b90508073ffffffffffffffffffffffffffffffffffffffff168473ffffffffffffffffffffffffffffffffffffffff16148061132557508373ffffffffffffffffffffffffffffffffffffffff1661130d8461053f565b73ffffffffffffffffffffffffffffffffffffffff16145b8061133657506113358185610fbe565b5b91505092915050565b8273ffffffffffffffffffffffffffffffffffffffff1661135f82610977565b73ffffffffffffffffffffffffffffffffffffffff16146113b5576040517f08c379a00000000000000000000000000000000000000000000000000000000081526004016113ac90612bf7565b60405180910390fd5b600073ffffffffffffffffffffffffffffffffffffffff168273ffffffffffffffffffffffffffffffffffffffff161415611425576040517f08c379a000000000000000000000000000000000000000000000000000000000815260040161141c90612ad7565b60405180910390fd5b6114308383836116a3565b61143b6000826111a8565b6001600360008573ffffffffffffffffffffffffffffffffffffffff1673ffffffffffffffffffffffffffffffffffffffff168152602001908152602001600020600082825461148b9190612def565b925050819055506001600360008473ffffffffffffffffffffffffffffffffffffffff1673ffffffffffffffffffffffffffffffffffffffff16815260200190815260200160002060008282546114e29190612d99565b92505081905550816002600083815260200190815260200160002060006101000a81548173ffffffffffffffffffffffffffffffffffffffff021916908373ffffffffffffffffffffffffffffffffffffffff160217905550808273ffffffffffffffffffffffffffffffffffffffff168473ffffffffffffffffffffffffffffffffffffffff167fddf252ad1be2c89b69c2b068fc378daa952ba7f163c4a11628f55a4df523b3ef60405160405180910390a4505050565b6115a684848461133f565b6115b2848484846117b7565b6115f1576040517f08c379a00000000000000000000000000000000000000000000000000000000081526004016115e890612a97565b60405180910390fd5b50505050565b6001816000016000828254019250508190555050565b600081600001549050919050565b61163582826040518060200160405280600081525061194e565b5050565b60007f01ffc9a7000000000000000000000000000000000000000000000000000000007bffffffffffffffffffffffffffffffffffffffffffffffffffffffff1916827bffffffffffffffffffffffffffffffffffffffffffffffffffffffff1916149050919050565b6116ae8383836119a9565b600073ffffffffffffffffffffffffffffffffffffffff168373ffffffffffffffffffffffffffffffffffffffff1614156116f1576116ec816119ae565b611730565b8173ffffffffffffffffffffffffffffffffffffffff168373ffffffffffffffffffffffffffffffffffffffff161461172f5761172e83826119f7565b5b5b600073ffffffffffffffffffffffffffffffffffffffff168273ffffffffffffffffffffffffffffffffffffffff1614156117735761176e81611b64565b6117b2565b8273ffffffffffffffffffffffffffffffffffffffff168273ffffffffffffffffffffffffffffffffffffffff16146117b1576117b08282611ca7565b5b5b505050565b60006117d88473ffffffffffffffffffffffffffffffffffffffff16611d26565b15611941578373ffffffffffffffffffffffffffffffffffffffff1663150b7a026118016111a0565b8786866040518563ffffffff1660e01b815260040161182394939291906129ee565b602060405180830381600087803b15801561183d57600080fd5b505af192505050801561186e57506040513d601f19601f8201168201806040525081019061186b91906122b3565b60015b6118f1573d806000811461189e576040519150601f19603f3d011682016040523d82523d6000602084013e6118a3565b606091505b506000815114156118e9576040517f08c379a00000000000000000000000000000000000000000000000000000000081526004016118e090612a97565b60405180910390fd5b805181602001fd5b63150b7a0260e01b7bffffffffffffffffffffffffffffffffffffffffffffffffffffffff1916817bffffffffffffffffffffffffffffffffffffffffffffffffffffffff191614915050611946565b600190505b949350505050565b6119588383611d39565b61196560008484846117b7565b6119a4576040517f08c379a000000000000000000000000000000000000000000000000000000000815260040161199b90612a97565b60405180910390fd5b505050565b505050565b6008805490506009600083815260200190815260200160002081905550600881908060018154018082558091505060019003906000526020600020016000909190919091505550565b60006001611a0484610a29565b611a0e9190612def565b9050600060076000848152602001908152602001600020549050818114611af3576000600660008673ffffffffffffffffffffffffffffffffffffffff1673ffffffffffffffffffffffffffffffffffffffff168152602001908152602001600020600084815260200190815260200160002054905080600660008773ffffffffffffffffffffffffffffffffffffffff1673ffffffffffffffffffffffffffffffffffffffff168152602001908152602001600020600084815260200190815260200160002081905550816007600083815260200190815260200160002081905550505b6007600084815260200190815260200160002060009055600660008573ffffffffffffffffffffffffffffffffffffffff1673ffffffffffffffffffffffffffffffffffffffff16815260200190815260200160002060008381526020019081526020016000206000905550505050565b60006001600880549050611b789190612def565b9050600060096000848152602001908152602001600020549050600060088381548110611bce577f4e487b7100000000000000000000000000000000000000000000000000000000600052603260045260246000fd5b906000526020600020015490508060088381548110611c16577f4e487b7100000000000000000000000000000000000000000000000000000000600052603260045260246000fd5b906000526020600020018190555081600960008381526020019081526020016000208190555060096000858152602001908152602001600020600090556008805480611c8b577f4e487b7100000000000000000000000000000000000000000000000000000000600052603160045260246000fd5b6001900381819060005260206000200160009055905550505050565b6000611cb283610a29565b905081600660008573ffffffffffffffffffffffffffffffffffffffff1673ffffffffffffffffffffffffffffffffffffffff168152602001908152602001600020600083815260200190815260200160002081905550806007600084815260200190815260200160002081905550505050565b600080823b905060008111915050919050565b600073ffffffffffffffffffffffffffffffffffffffff168273ffffffffffffffffffffffffffffffffffffffff161415611da9576040517f08c379a0000000000000000000000000000000000000000000000000000000008152600401611da090612b97565b60405180910390fd5b611db281611134565b15611df2576040517f08c379a0000000000000000000000000000000000000000000000000000000008152600401611de990612ab7565b60405180910390fd5b611dfe600083836116a3565b6001600360008473ffffffffffffffffffffffffffffffffffffffff1673ffffffffffffffffffffffffffffffffffffffff1681526020019081526020016000206000828254611e4e9190612d99565b92505081905550816002600083815260200190815260200160002060006101000a81548173ffffffffffffffffffffffffffffffffffffffff021916908373ffffffffffffffffffffffffffffffffffffffff160217905550808273ffffffffffffffffffffffffffffffffffffffff16600073ffffffffffffffffffffffffffffffffffffffff167fddf252ad1be2c89b69c2b068fc378daa952ba7f163c4a11628f55a4df523b3ef60405160405180910390a45050565b828054611f1390612ed9565b90600052602060002090601f016020900481019282611f355760008555611f7c565b82601f10611f4e57805160ff1916838001178555611f7c565b82800160010185558215611f7c579182015b82811115611f7b578251825591602001919060010190611f60565b5b509050611f899190611f8d565b5090565b5b80821115611fa6576000816000905550600101611f8e565b5090565b6000611fbd611fb884612d01565b612cd0565b905082815260208101848484011115611fd557600080fd5b611fe0848285612e97565b509392505050565b6000611ffb611ff684612d31565b612cd0565b90508281526020810184848401111561201357600080fd5b61201e848285612e97565b509392505050565b60008135905061203581612fa9565b92915050565b60008135905061204a81612fc0565b92915050565b60008135905061205f81612fd7565b92915050565b60008151905061207481612fd7565b92915050565b600082601f83011261208b57600080fd5b813561209b848260208601611faa565b91505092915050565b600082601f8301126120b557600080fd5b81356120c5848260208601611fe8565b91505092915050565b6000813590506120dd81612fee565b92915050565b6000602082840312156120f557600080fd5b600061210384828501612026565b91505092915050565b6000806040838503121561211f57600080fd5b600061212d85828601612026565b925050602061213e85828601612026565b9150509250929050565b60008060006060848603121561215d57600080fd5b600061216b86828701612026565b935050602061217c86828701612026565b925050604061218d868287016120ce565b9150509250925092565b600080600080608085870312156121ad57600080fd5b60006121bb87828801612026565b94505060206121cc87828801612026565b93505060406121dd878288016120ce565b925050606085013567ffffffffffffffff8111156121fa57600080fd5b6122068782880161207a565b91505092959194509250565b6000806040838503121561222557600080fd5b600061223385828601612026565b92505060206122448582860161203b565b9150509250929050565b6000806040838503121561226157600080fd5b600061226f85828601612026565b9250506020612280858286016120ce565b9150509250929050565b60006020828403121561229c57600080fd5b60006122aa84828501612050565b91505092915050565b6000602082840312156122c557600080fd5b60006122d384828501612065565b91505092915050565b6000602082840312156122ee57600080fd5b600082013567ffffffffffffffff81111561230857600080fd5b612314848285016120a4565b91505092915050565b60006020828403121561232f57600080fd5b600061233d848285016120ce565b91505092915050565b61234f81612e23565b82525050565b61235e81612e35565b82525050565b600061236f82612d61565b6123798185612d77565b9350612389818560208601612ea6565b61239281612f98565b840191505092915050565b60006123a882612d6c565b6123b28185612d88565b93506123c2818560208601612ea6565b6123cb81612f98565b840191505092915050565b60006123e3602b83612d88565b91507f455243373231456e756d657261626c653a206f776e657220696e646578206f7560008301527f74206f6620626f756e64730000000000000000000000000000000000000000006020830152604082019050919050565b6000612449603283612d88565b91507f4552433732313a207472616e7366657220746f206e6f6e20455243373231526560008301527f63656976657220696d706c656d656e74657200000000000000000000000000006020830152604082019050919050565b60006124af601c83612d88565b91507f4552433732313a20746f6b656e20616c7265616479206d696e746564000000006000830152602082019050919050565b60006124ef602483612d88565b91507f4552433732313a207472616e7366657220746f20746865207a65726f2061646460008301527f72657373000000000000000000000000000000000000000000000000000000006020830152604082019050919050565b6000612555601983612d88565b91507f4552433732313a20617070726f766520746f2063616c6c6572000000000000006000830152602082019050919050565b6000612595602c83612d88565b91507f4552433732313a206f70657261746f7220717565727920666f72206e6f6e657860008301527f697374656e7420746f6b656e00000000000000000000000000000000000000006020830152604082019050919050565b60006125fb603883612d88565b91507f4552433732313a20617070726f76652063616c6c6572206973206e6f74206f7760008301527f6e6572206e6f7220617070726f76656420666f7220616c6c00000000000000006020830152604082019050919050565b6000612661602a83612d88565b91507f4552433732313a2062616c616e636520717565727920666f7220746865207a6560008301527f726f2061646472657373000000000000000000000000000000000000000000006020830152604082019050919050565b60006126c7602983612d88565b91507f4552433732313a206f776e657220717565727920666f72206e6f6e657869737460008301527f656e7420746f6b656e00000000000000000000000000000000000000000000006020830152604082019050919050565b600061272d602083612d88565b91507f4552433732313a206d696e7420746f20746865207a65726f20616464726573736000830152602082019050919050565b600061276d603183612d88565b91507f45524337323155524953746f726167653a2055524920717565727920666f722060008301527f6e6f6e6578697374656e7420746f6b656e0000000000000000000000000000006020830152604082019050919050565b60006127d3602c83612d88565b91507f4552433732313a20617070726f76656420717565727920666f72206e6f6e657860008301527f697374656e7420746f6b656e00000000000000000000000000000000000000006020830152604082019050919050565b6000612839602983612d88565b91507f4552433732313a207472616e73666572206f6620746f6b656e2074686174206960008301527f73206e6f74206f776e00000000000000000000000000000000000000000000006020830152604082019050919050565b600061289f602183612d88565b91507f4552433732313a20617070726f76616c20746f2063757272656e74206f776e6560008301527f72000000000000000000000000000000000000000000000000000000000000006020830152604082019050919050565b6000612905603183612d88565b91507f4552433732313a207472616e736665722063616c6c6572206973206e6f74206f60008301527f776e6572206e6f7220617070726f7665640000000000000000000000000000006020830152604082019050919050565b600061296b602c83612d88565b91507f455243373231456e756d657261626c653a20676c6f62616c20696e646578206f60008301527f7574206f6620626f756e647300000000000000000000000000000000000000006020830152604082019050919050565b6129cd81612e8d565b82525050565b60006020820190506129e86000830184612346565b92915050565b6000608082019050612a036000830187612346565b612a106020830186612346565b612a1d60408301856129c4565b8181036060830152612a2f8184612364565b905095945050505050565b6000602082019050612a4f6000830184612355565b92915050565b60006020820190508181036000830152612a6f818461239d565b905092915050565b60006020820190508181036000830152612a90816123d6565b9050919050565b60006020820190508181036000830152612ab08161243c565b9050919050565b60006020820190508181036000830152612ad0816124a2565b9050919050565b60006020820190508181036000830152612af0816124e2565b9050919050565b60006020820190508181036000830152612b1081612548565b9050919050565b60006020820190508181036000830152612b3081612588565b9050919050565b60006020820190508181036000830152612b50816125ee565b9050919050565b60006020820190508181036000830152612b7081612654565b9050919050565b60006020820190508181036000830152612b90816126ba565b9050919050565b60006020820190508181036000830152612bb081612720565b9050919050565b60006020820190508181036000830152612bd081612760565b9050919050565b60006020820190508181036000830152612bf0816127c6565b9050919050565b60006020820190508181036000830152612c108161282c565b9050919050565b60006020820190508181036000830152612c3081612892565b9050919050565b60006020820190508181036000830152612c50816128f8565b9050919050565b60006020820190508181036000830152612c708161295e565b9050919050565b6000602082019050612c8c60008301846129c4565b92915050565b6000606082019050612ca760008301866129c4565b612cb46020830185612346565b8181036040830152612cc6818461239d565b9050949350505050565b6000604051905081810181811067ffffffffffffffff82111715612cf757612cf6612f69565b5b8060405250919050565b600067ffffffffffffffff821115612d1c57612d1b612f69565b5b601f19601f8301169050602081019050919050565b600067ffffffffffffffff821115612d4c57612d4b612f69565b5b601f19601f8301169050602081019050919050565b600081519050919050565b600081519050919050565b600082825260208201905092915050565b600082825260208201905092915050565b6000612da482612e8d565b9150612daf83612e8d565b9250827fffffffffffffffffffffffffffffffffffffffffffffffffffffffffffffffff03821115612de457612de3612f0b565b5b828201905092915050565b6000612dfa82612e8d565b9150612e0583612e8d565b925082821015612e1857612e17612f0b565b5b828203905092915050565b6000612e2e82612e6d565b9050919050565b60008115159050919050565b60007fffffffff0000000000000000000000000000000000000000000000000000000082169050919050565b600073ffffffffffffffffffffffffffffffffffffffff82169050919050565b6000819050919050565b82818337600083830152505050565b60005b83811015612ec4578082015181840152602081019050612ea9565b83811115612ed3576000848401525b50505050565b60006002820490506001821680612ef157607f821691505b60208210811415612f0557612f04612f3a565b5b50919050565b7f4e487b7100000000000000000000000000000000000000000000000000000000600052601160045260246000fd5b7f4e487b7100000000000000000000000000000000000000000000000000000000600052602260045260246000fd5b7f4e487b7100000000000000000000000000000000000000000000000000000000600052604160045260246000fd5b6000601f19601f8301169050919050565b612fb281612e23565b8114612fbd57600080fd5b50565b612fc981612e35565b8114612fd457600080fd5b50565b612fe081612e41565b8114612feb57600080fd5b50565b612ff781612e8d565b811461300257600080fd5b5056fea2646970667358221220f53e5f845013d2e609fe3333816548dc82a778ca67612655185652a24c794e7464736f6c63430008000033",
  "linkReferences": {},
  "deployedLinkReferences": {}
}